{
    "000/my_chain_id_test/London/tx_type_0": {
        "network": "London",
        "genesisBlockHeader": {
            "parentHash": "0x0000000000000000000000000000000000000000000000000000000000000000",
            "uncleHash": "0x1dcc4de8dec75d7aab85b567b6ccd41ad312451b948a7413f0a142fd40d49347",
            "coinbase": "0x0000000000000000000000000000000000000000",
            "stateRoot": "0x03727f261910c4f666532f9374d9dadaa72a69c2d4171955caa71e7a98adc447",
            "transactionsTrie": "0x56e81f171bcc55a6ff8345e692c0f86e5b48e01b996cadc001622fb5e363b421",
            "receiptTrie": "0x56e81f171bcc55a6ff8345e692c0f86e5b48e01b996cadc001622fb5e363b421",
            "bloom": "0x00000000000000000000000000000000000000000000000000000000000000000000000000000000000000000000000000000000000000000000000000000000000000000000000000000000000000000000000000000000000000000000000000000000000000000000000000000000000000000000000000000000000000000000000000000000000000000000000000000000000000000000000000000000000000000000000000000000000000000000000000000000000000000000000000000000000000000000000000000000000000000000000000000000000000000000000000000000000000000000000000000000000000000000000000000000",
            "difficulty": "0x020000",
            "number": "0x00",
            "gasLimit": "0x02540be400",
            "gasUsed": "0x00",
            "timestamp": "0x00",
            "extraData": "0x00",
            "mixHash": "0x0000000000000000000000000000000000000000000000000000000000000000",
            "nonce": "0x0000000000000000",
            "baseFeePerGas": "0x07",
            "hash": "0xd8357264cc6251a5396f5fbae1e3b41fef2217b931b6da35e07cffc95838bf0b"
        },
        "pre": {
            "0x1000000000000000000000000000000000000000": {
                "nonce": "0x00",
                "balance": "0x00",
                "code": "0x46600155600260016000a100",
                "storage": {}
            },
            "0xa94f5374fce5edbc8e2a8697c15331677e6ebf0b": {
                "nonce": "0x00",
                "balance": "0x3635c9adc5dea00000",
                "code": "0x",
                "storage": {}
            }
        },
        "postState": {
            "0x1000000000000000000000000000000000000000": {
                "nonce": "0x00",
                "balance": "0x00",
                "code": "0x46600155600260016000a100",
                "storage": {
                    "0x01": "0x01"
                }
            },
            "0xa94f5374fce5edbc8e2a8697c15331677e6ebf0b": {
                "nonce": "0x01",
                "balance": "0x3635c9adc5de994e22",
                "code": "0x",
                "storage": {}
            },
            "0x2adc25665018aa1fe0e6bc666dac8fc2697ff9ba": {
                "nonce": "0x00",
                "balance": "0x1bc16d674eca0229",
                "code": "0x",
                "storage": {}
            }
        },
        "lastblockhash": "0x771beea22a98357c1fce6a4955c7023c95d515f5f3f761f8b5abd23d0c1805b5",
        "config": {
            "network": "London",
            "chainid": "0x01"
        },
        "genesisRLP": "0xf901fbf901f6a00000000000000000000000000000000000000000000000000000000000000000a01dcc4de8dec75d7aab85b567b6ccd41ad312451b948a7413f0a142fd40d49347940000000000000000000000000000000000000000a003727f261910c4f666532f9374d9dadaa72a69c2d4171955caa71e7a98adc447a056e81f171bcc55a6ff8345e692c0f86e5b48e01b996cadc001622fb5e363b421a056e81f171bcc55a6ff8345e692c0f86e5b48e01b996cadc001622fb5e363b421b901000000000000000000000000000000000000000000000000000000000000000000000000000000000000000000000000000000000000000000000000000000000000000000000000000000000000000000000000000000000000000000000000000000000000000000000000000000000000000000000000000000000000000000000000000000000000000000000000000000000000000000000000000000000000000000000000000000000000000000000000000000000000000000000000000000000000000000000000000000000000000000000000000000000000000000000000000000000000000000000000000000000000000000000000000000000083020000808502540be400808000a0000000000000000000000000000000000000000000000000000000000000000088000000000000000007c0c0",
        "blocks": [
            {
                "blockHeader": {
                    "parentHash": "0xd8357264cc6251a5396f5fbae1e3b41fef2217b931b6da35e07cffc95838bf0b",
                    "uncleHash": "0x1dcc4de8dec75d7aab85b567b6ccd41ad312451b948a7413f0a142fd40d49347",
                    "coinbase": "0x2adc25665018aa1fe0e6bc666dac8fc2697ff9ba",
                    "stateRoot": "0x802b7a48210549d8f4b5662c44aede70132d55a42f09364a049bf14dd776ab9c",
                    "transactionsTrie": "0x8151d548273f6683169524b66ca9fe338b9ce42bc3540046c828fd939ae23bcb",
                    "receiptTrie": "0x4b93b3c0006d672c5dfd4094132d3e8acd463e7cb018f86df29136c9a399d0b6",
                    "bloom": "0x04000000000000000000000000000000000000000000000000000000000000000000000000000000000000000000000000000000000200000000000000000000000000000000000000080000000000000000000000000000000000000000000000000000000000000000000000000000000000000000000000000000000000000000000000000000000000000000000000000000000000000000000000000000000000000000000000000100000000004000000000000000000000000000000000000000000000000000000000000000000000000000000000000000000000000000000000000000000000000000000000000000008000000000000000000000",
                    "difficulty": "0x020000",
                    "number": "0x01",
                    "gasLimit": "0x02540be400",
                    "gasUsed": "0xab63",
                    "timestamp": "0x03e8",
                    "extraData": "0x00",
                    "mixHash": "0x0000000000000000000000000000000000000000000000000000000000000000",
                    "nonce": "0x0000000000000000",
                    "baseFeePerGas": "0x07",
                    "hash": "0x771beea22a98357c1fce6a4955c7023c95d515f5f3f761f8b5abd23d0c1805b5"
                },
                "transactions": [
                    {
                        "type": "0x00",
                        "chainId": "0x00",
                        "nonce": "0x00",
                        "gasPrice": "0x0a",
                        "gasLimit": "0x05f5e100",
                        "to": "0x1000000000000000000000000000000000000000",
                        "value": "0x00",
                        "data": "0x",
                        "v": "0x1b",
                        "r": "0x7e09e26678ed4fac08a249ebe8ed680bf9051a5e14ad223e4b2b9d26e0208f37",
                        "s": "0x5f6e3f188e3e6eab7d7d3b6568f5eac7d687b08d307d3154ccd8c87b4630509b",
                        "sender": "0xa94f5374fce5edbc8e2a8697c15331677e6ebf0b"
                    }
                ],
                "uncleHeaders": [],
                "receipts": [
                    {
                        "transactionHash": "0xdb1e409d11d92e6e8b3825ec82dff14f3661f1247c0d306ed4ff6aa22b0987f4",
                        "cumulativeGasUsed": "0xab63",
                        "bloom": "0x04000000000000000000000000000000000000000000000000000000000000000000000000000000000000000000000000000000000200000000000000000000000000000000000000080000000000000000000000000000000000000000000000000000000000000000000000000000000000000000000000000000000000000000000000000000000000000000000000000000000000000000000000000000000000000000000000000100000000004000000000000000000000000000000000000000000000000000000000000000000000000000000000000000000000000000000000000000000000000000000000000000008000000000000000000000",
                        "logs": [
                            {
                                "address": "0x1000000000000000000000000000000000000000",
                                "topics": [
                                    "0x0000000000000000000000000000000000000000000000000000000000000002"
                                ],
                                "data": "0x00"
                            }
                        ],
                        "rlp": "0xf901430182ab63b9010004000000000000000000000000000000000000000000000000000000000000000000000000000000000000000000000000000000000200000000000000000000000000000000000000080000000000000000000000000000000000000000000000000000000000000000000000000000000000000000000000000000000000000000000000000000000000000000000000000000000000000000000000000000000000000000000000000100000000004000000000000000000000000000000000000000000000000000000000000000000000000000000000000000000000000000000000000000000000000000000000000000008000000000000000000000f83af838941000000000000000000000000000000000000000e1a0000000000000000000000000000000000000000000000000000000000000000200",
                        "status": true,
                        "type": "0x00"
                    }
                ],
                "rlp": "0xf90263f901faa0d8357264cc6251a5396f5fbae1e3b41fef2217b931b6da35e07cffc95838bf0ba01dcc4de8dec75d7aab85b567b6ccd41ad312451b948a7413f0a142fd40d49347942adc25665018aa1fe0e6bc666dac8fc2697ff9baa0802b7a48210549d8f4b5662c44aede70132d55a42f09364a049bf14dd776ab9ca08151d548273f6683169524b66ca9fe338b9ce42bc3540046c828fd939ae23bcba04b93b3c0006d672c5dfd4094132d3e8acd463e7cb018f86df29136c9a399d0b6b901000400000000000000000000000000000000000000000000000000000000000000000000000000000000000000000000000000000000020000000000000000000000000000000000000008000000000000000000000000000000000000000000000000000000000000000000000000000000000000000000000000000000000000000000000000000000000000000000000000000000000000000000000000000000000000000000000000010000000000400000000000000000000000000000000000000000000000000000000000000000000000000000000000000000000000000000000000000000000000000000000000000000800000000000000000000083020000018502540be40082ab638203e800a0000000000000000000000000000000000000000000000000000000000000000088000000000000000007f863f861800a8405f5e10094100000000000000000000000000000000000000080801ba07e09e26678ed4fac08a249ebe8ed680bf9051a5e14ad223e4b2b9d26e0208f37a05f6e3f188e3e6eab7d7d3b6568f5eac7d687b08d307d3154ccd8c87b4630509bc0",
                "blocknumber": "1"
            }
        ],
        "sealEngine": "NoProof",
        "_info": {
            "hash": "0xc2da7ab682d573a2ff88b987526c1ae2d5abac2c738b575294b7976c5358078b",
            "fixture-format": "blockchain_test"
        }
    }
}
