{
    "000/my_chain_id_test/Istanbul/tx_type_0": {
        "network": "Istanbul",
        "genesisBlockHeader": {
            "parentHash": "0x0000000000000000000000000000000000000000000000000000000000000000",
            "uncleHash": "0x1dcc4de8dec75d7aab85b567b6ccd41ad312451b948a7413f0a142fd40d49347",
            "coinbase": "0x0000000000000000000000000000000000000000",
            "stateRoot": "0x03727f261910c4f666532f9374d9dadaa72a69c2d4171955caa71e7a98adc447",
            "transactionsTrie": "0x56e81f171bcc55a6ff8345e692c0f86e5b48e01b996cadc001622fb5e363b421",
            "receiptTrie": "0x56e81f171bcc55a6ff8345e692c0f86e5b48e01b996cadc001622fb5e363b421",
            "bloom": "0x00000000000000000000000000000000000000000000000000000000000000000000000000000000000000000000000000000000000000000000000000000000000000000000000000000000000000000000000000000000000000000000000000000000000000000000000000000000000000000000000000000000000000000000000000000000000000000000000000000000000000000000000000000000000000000000000000000000000000000000000000000000000000000000000000000000000000000000000000000000000000000000000000000000000000000000000000000000000000000000000000000000000000000000000000000000",
            "difficulty": "0x020000",
            "number": "0x00",
            "gasLimit": "0x02540be400",
            "gasUsed": "0x00",
            "timestamp": "0x00",
            "extraData": "0x00",
            "mixHash": "0x0000000000000000000000000000000000000000000000000000000000000000",
            "nonce": "0x0000000000000000",
            "hash": "0xec3ce185f68c896dd44ffa0411678f59027ea09caf66de21213257b5c1241218"
        },
        "pre": {
            "0x1000000000000000000000000000000000000000": {
                "nonce": "0x00",
                "balance": "0x00",
                "code": "0x46600155600260016000a100",
                "storage": {}
            },
            "0xa94f5374fce5edbc8e2a8697c15331677e6ebf0b": {
                "nonce": "0x00",
                "balance": "0x3635c9adc5dea00000",
                "code": "0x",
                "storage": {}
            }
        },
        "postState": {
            "0x1000000000000000000000000000000000000000": {
                "nonce": "0x00",
                "balance": "0x00",
                "code": "0x46600155600260016000a100",
                "storage": {
                    "0x01": "0x01"
                }
            },
            "0xa94f5374fce5edbc8e2a8697c15331677e6ebf0b": {
                "nonce": "0x01",
                "balance": "0x3635c9adc5de99a02a",
                "code": "0x",
                "storage": {}
            },
            "0x2adc25665018aa1fe0e6bc666dac8fc2697ff9ba": {
                "nonce": "0x00",
                "balance": "0x1bc16d674ece5fd6",
                "code": "0x",
                "storage": {}
            }
        },
        "lastblockhash": "0xe8c05589c5de362c930acbe987e2791fbf96537f7bf6977875cbe6ed1479d3fa",
        "config": {
            "network": "Istanbul",
            "chainid": "0x01"
        },
        "genesisRLP": "0xf901faf901f5a00000000000000000000000000000000000000000000000000000000000000000a01dcc4de8dec75d7aab85b567b6ccd41ad312451b948a7413f0a142fd40d49347940000000000000000000000000000000000000000a003727f261910c4f666532f9374d9dadaa72a69c2d4171955caa71e7a98adc447a056e81f171bcc55a6ff8345e692c0f86e5b48e01b996cadc001622fb5e363b421a056e81f171bcc55a6ff8345e692c0f86e5b48e01b996cadc001622fb5e363b421b901000000000000000000000000000000000000000000000000000000000000000000000000000000000000000000000000000000000000000000000000000000000000000000000000000000000000000000000000000000000000000000000000000000000000000000000000000000000000000000000000000000000000000000000000000000000000000000000000000000000000000000000000000000000000000000000000000000000000000000000000000000000000000000000000000000000000000000000000000000000000000000000000000000000000000000000000000000000000000000000000000000000000000000000000000000000083020000808502540be400808000a00000000000000000000000000000000000000000000000000000000000000000880000000000000000c0c0",
        "blocks": [
            {
                "blockHeader": {
                    "parentHash": "0xec3ce185f68c896dd44ffa0411678f59027ea09caf66de21213257b5c1241218",
                    "uncleHash": "0x1dcc4de8dec75d7aab85b567b6ccd41ad312451b948a7413f0a142fd40d49347",
                    "coinbase": "0x2adc25665018aa1fe0e6bc666dac8fc2697ff9ba",
                    "stateRoot": "0xecfbb77cf4742ee1ea84df09516302b4e59829582d6ad68c48fd605cb3ccdab4",
                    "transactionsTrie": "0x8151d548273f6683169524b66ca9fe338b9ce42bc3540046c828fd939ae23bcb",
                    "receiptTrie": "0xea2896eb820f2178aaddde2a641e11a37cf9c7c36e8ef302f0eb924c0318b671",
                    "bloom": "0x04000000000000000000000000000000000000000000000000000000000000000000000000000000000000000000000000000000000200000000000000000000000000000000000000080000000000000000000000000000000000000000000000000000000000000000000000000000000000000000000000000000000000000000000000000000000000000000000000000000000000000000000000000000000000000000000000000100000000004000000000000000000000000000000000000000000000000000000000000000000000000000000000000000000000000000000000000000000000000000000000000000008000000000000000000000",
                    "difficulty": "0x020000",
                    "number": "0x01",
                    "gasLimit": "0x02540be400",
                    "gasUsed": "0xa32f",
                    "timestamp": "0x03e8",
                    "extraData": "0x00",
                    "mixHash": "0x0000000000000000000000000000000000000000000000000000000000000000",
                    "nonce": "0x0000000000000000",
                    "hash": "0xe8c05589c5de362c930acbe987e2791fbf96537f7bf6977875cbe6ed1479d3fa"
                },
                "transactions": [
                    {
                        "type": "0x00",
                        "chainId": "0x00",
                        "nonce": "0x00",
                        "gasPrice": "0x0a",
                        "gasLimit": "0x05f5e100",
                        "to": "0x1000000000000000000000000000000000000000",
                        "value": "0x00",
                        "data": "0x",
                        "v": "0x1b",
                        "r": "0x7e09e26678ed4fac08a249ebe8ed680bf9051a5e14ad223e4b2b9d26e0208f37",
                        "s": "0x5f6e3f188e3e6eab7d7d3b6568f5eac7d687b08d307d3154ccd8c87b4630509b",
                        "sender": "0xa94f5374fce5edbc8e2a8697c15331677e6ebf0b"
                    }
                ],
                "uncleHeaders": [],
                "receipts": [
                    {
                        "transactionHash": "0xdb1e409d11d92e6e8b3825ec82dff14f3661f1247c0d306ed4ff6aa22b0987f4",
                        "cumulativeGasUsed": "0xa32f",
                        "bloom": "0x04000000000000000000000000000000000000000000000000000000000000000000000000000000000000000000000000000000000200000000000000000000000000000000000000080000000000000000000000000000000000000000000000000000000000000000000000000000000000000000000000000000000000000000000000000000000000000000000000000000000000000000000000000000000000000000000000000100000000004000000000000000000000000000000000000000000000000000000000000000000000000000000000000000000000000000000000000000000000000000000000000000008000000000000000000000",
                        "logs": [
                            {
                                "address": "0x1000000000000000000000000000000000000000",
                                "topics": [
                                    "0x0000000000000000000000000000000000000000000000000000000000000002"
                                ],
                                "data": "0x00"
                            }
                        ],
                        "rlp": "0xf901430182a32fb9010004000000000000000000000000000000000000000000000000000000000000000000000000000000000000000000000000000000000200000000000000000000000000000000000000080000000000000000000000000000000000000000000000000000000000000000000000000000000000000000000000000000000000000000000000000000000000000000000000000000000000000000000000000000000000000000000000000100000000004000000000000000000000000000000000000000000000000000000000000000000000000000000000000000000000000000000000000000000000000000000000000000008000000000000000000000f83af838941000000000000000000000000000000000000000e1a0000000000000000000000000000000000000000000000000000000000000000200",
                        "status": true,
                        "type": "0x00"
                    }
                ],
                "rlp": "0xf90262f901f9a0ec3ce185f68c896dd44ffa0411678f59027ea09caf66de21213257b5c1241218a01dcc4de8dec75d7aab85b567b6ccd41ad312451b948a7413f0a142fd40d49347942adc25665018aa1fe0e6bc666dac8fc2697ff9baa0ecfbb77cf4742ee1ea84df09516302b4e59829582d6ad68c48fd605cb3ccdab4a08151d548273f6683169524b66ca9fe338b9ce42bc3540046c828fd939ae23bcba0ea2896eb820f2178aaddde2a641e11a37cf9c7c36e8ef302f0eb924c0318b671b901000400000000000000000000000000000000000000000000000000000000000000000000000000000000000000000000000000000000020000000000000000000000000000000000000008000000000000000000000000000000000000000000000000000000000000000000000000000000000000000000000000000000000000000000000000000000000000000000000000000000000000000000000000000000000000000000000000010000000000400000000000000000000000000000000000000000000000000000000000000000000000000000000000000000000000000000000000000000000000000000000000000000800000000000000000000083020000018502540be40082a32f8203e800a00000000000000000000000000000000000000000000000000000000000000000880000000000000000f863f861800a8405f5e10094100000000000000000000000000000000000000080801ba07e09e26678ed4fac08a249ebe8ed680bf9051a5e14ad223e4b2b9d26e0208f37a05f6e3f188e3e6eab7d7d3b6568f5eac7d687b08d307d3154ccd8c87b4630509bc0",
                "blocknumber": "1"
            }
        ],
        "sealEngine": "NoProof",
        "_info": {
            "hash": "0x57a6f950bef3a44741ac3617e53f37bb55b124ce2e26d02508b217e6d351eba8",
            "fixture-format": "blockchain_test"
        }
    }
}
